ALaura Paulina Provenzi                                                35255072087  2607395       17004421603        RSF25/01/196014902 10Ageny Ida Provenzi                                                    Mario Jose Provenzi                                                   Casado              Ensino Médio        300002158000000Firmino Camargo Branco                                      Rua          780Franciosi                     95200000Casa                RS2250954-3232 8362        54-9937 9191                            01/03/201616/01/2017ATIVO - Cedido                CONTRATADO          CLT                 12/07/1985          28/12/199814411458            laura-provenzi@defensoria.rs.gov.br                                                                  410440   3508655009          10713812602               240097000000000
APatrícia Conde Buzatto                                                78514363034  2763982       11041199744        RSF25/06/197514902 10Rosa Elisa Limongi Conde                                              Luiz Carlos Terra Conde                                               Casado              Educação Superior   300002069020000Sani Fontoura Silva                                         Rua         1263Capelinha                     97650000                    RS1060355-3433-2628        55-9936-3020                                      16/01/2017ATIVO - Efetivo Exercício     EFETIVO             DEFENSORES          23/12/200313/01/200412/01/200414628376            patricia-buzatto@dpe.rs.gov.br                                                                       410230   3585162606          19000480038               300002069020000
AAlessandro Genaro Soares Lema                                         59441518034  2791943       18050829798        RSM25/07/197114902 10Vilma Therezinha Soares Carrasco Lema                                 Jaime Carrasco Lema                                                   Casado              Educação Superior   300002047010000 Alberto Müller                                             Avenida     1668Universitário                 95900000                    RS1200951 3712-2468        51-97149520                                       16/01/2017ATIVO - Efetivo Exercício     EFETIVO             DEFENSORES          24/06/200414/07/200413/07/200414672138            alessandro-lema@dpe.rs.gov.br                                                                        410906   0805281100          19018444866               300002047010000
AIrvan Antunes Vieira Filho                                            89601041087  2912783       11052420849        RSM02/12/197514902 10Celia Maria Vargas Vieira                                             Irvan Antunes Vieira                                                  Casado              Educação Superior   300002086030000Da Serra                                                    Alameda      735Centro                        95520000Cond Interlagos     RS1350851-3684-4525        51-9994-6308                                      16/01/2017ATIVO - Efetivo Exercício     EFETIVO             DEFENSORES          04/10/200618/10/200618/10/2006                    irvan-filho@dpe.rs.gov.br                                                                            410300   3505593800          12654869697               300002086030000
AMarcela Fernandez Gonçalves Bressani                                  94061726072  2912813       11072433061        RSF18/03/197814902 10Carmen Lucia Fernandez Gonçalves                                      Bayard Cruxên Gonçalves                                               Casado              Educação Superior   300002512030000Itajaí                                                      Avenida       77Petrópolis                    90470140Ap. 401             RS1490251-3307-3861        51-9302-6881                                      09/01/2017ATIVO - Afastado              EFETIVO             DEFENSORES          04/10/200618/10/200618/10/2006                    marcela-goncalves@dpe.rs.gov.br                                                                      410845   3512375108          12987086670               300002512030000
AMarcelo Candiago                                                      89489241091  2942844       16069517495        RSM14/12/197614902 10Vera Terezinha Candiago                                               Gilberto Umann Candiago                                               Casado              Pós-Graduação       300002504030000Coronel Marcos                                              Avenida      240Pedra Redonda                 91760000Casa 03             RS1490251-3345-2355        51-9994-6002                                      16/01/2017ATIVO - Efetivo Exercício     EFETIVO             DEFENSORES          23/04/200718/05/200718/05/2007                    marcelo-candiago@dpe.rs.gov.br                                                                       410085   3511279601          19029511764               300002504030000
AEverton Hertzog Castilhos                                             92815901072  3065235       13059637979        RSM09/03/197714902 10Maria Lizane Hertzog Castilhos                                        José Antonio Castilhos                                                Casado              Pós-Graduação       300002085220000Caldre e Fião                                               Rua          514Santo Antônio                 90660110Casa                RS1490251-3223-1981        51-9304-0115                                      16/01/2017ATIVO - Efetivo Exercício     EFETIVO             DEFENSORES          18/09/200817/10/200817/10/2008                    everton@dpe.rs.gov.br                                                                                410011   3502837306          12699658695               300002085220000
AMárcia Guedes Só                                                      91467411000  3201244       16059344868        RSF12/08/197814902 10Elizabeth Guedes Só                                                   Luiz Rosalvo Costa Só                                                 Casado              Pós-Graduação       300002162010000Dolores Duran                                               Rua         1584Agronomia                     91540220Casa 113            RS1490251 3907-5203        51-91568374                                                 ATIVO - Efetivo Exercício     EFETIVO             DEFENSORES          11/01/201029/01/201029/01/2010                    marcia-so@dpe.rs.gov.br                                                                              411042   3500046208          19006820949               300002162010000
AMárcio Lenine Arnecke Maria                                           94770506015  3446263       27036530207        RSM01/11/197504606 10Sirlei Maria Arnecke de Maria                                         Nilton Leal Maria                                                     Sep Judicialmente   Educação Superior   300002027010000Tiarajú                                                     Rua          136Navegantes                    95555000Ap. 604             RS04630                    51-95746085                                       16/01/2017ATIVO - Efetivo Exercício     EFETIVO             DEFENSORES          24/07/201210/08/201210/08/2012                    marciomaria@dpe.rs.gov.br                                                                            410871   3585909205          17061304187               300002027010000
ARafael Martinez Fortes                                                71511970049  3541029       11045005855        RSM20/12/197314902 10Flavia Martinez Fortes                                                Constante Jardim Fortes                                               Solteiro            Educ Superior Inc   300004006060000Borges de Medeiros                                          Avenida     1121Centro Histórico              90020021Apto. 303           RS1490251 3225-7314        54-91554440                                       16/01/2017ATIVO - Efetivo Exercício     COMISSIONADO        RJU                 30/03/201130/03/201130/03/2011                    rafael-fortes@dpe.rs.gov.br                                                                          410180   3559765004          12418723331300004006060000300004006060000
ACamila Cartier dos Santos                                               755640098  3880753       28093760216        RSF05/08/198214902 10Suzete Cartier dos Santos                                             Nilson dos Santos                                                     Solteiro            Educação Superior   300002133000000José de Souza Lima                                          Rua          155São José                      97095340                    RS0933255-96105880         55-91033553                                       16/12/2016ATIVO - Afastado              EFETIVO             RJU                 03/11/201417/11/201417/11/2014                    camila-santos@defensoria.rs.gov.br                                                                   410377   3882038402          13020379708               300002133000000
AAna Carolina Dauve                                                    82711070034  3895521       15075024611        RSF08/03/198714902 10Edi Maria Alnoch Dauve                                                Valberto Hagemann Dauve                                               Solteiro            Educação Superior   300002501000000João Ernesto Schimidt                                       Rua          251Jardim Itu Sabara             91210125Apto 307            RS1490251-33382759         51-99129176                                       16/01/2017ATIVO - Efetivo Exercício     EFETIVO             RJU                 22/04/201405/05/201405/05/2014                    ana-dauve@defensoria.rs.gov.br                                                                       410027   3517359305          20685108877               300002501000000
AGessica Pacheco Camara                                                 2809046069  3895734       12112246075        RSF04/02/199201107 10Angela Fonseca Pacheco                                                Julio Cesar da Silva Camara                                           Solteiro            Ensino Médio        30000203400000012 de Abril                                                 Rua          494Centro                        96740000                    RS0110751-3656-3049        51-8041-2522                                      16/01/2017ATIVO - Efetivo Exercício     EFETIVO             RJU                 22/04/201405/05/201405/05/2014                    gessica-camara@defensoria.rs.gov.br                                                                  410117   3882062001          20145743475               300002034000000
APatrícia Gomes Morais                                                 83594833020  3896072       11098879099        RSF18/05/198814407 10Cladis Maria Gomes Morais                                             Anselmo Lineu Gonçalves Morais                                        Casado              Educação Superior                  Teotonia                                                    Rua          300Camaquã                       91900110ap. 607 Bl. A       RS1490251-32395073         51-92825267         12/08/2014                              DESLIGADO                     EFETIVO             RJU                 22/04/201405/05/201405/05/2014                    patriciagm.morais@gmail.com                                                                          410051   3510360006          20452821465                              
ATalita Botega Flores                                                   2786252075  3896234       18092481525        RSF28/05/199318705 10Jane Maria Rezes Botega Flores                                        Ronei Oliveira Flores                                                 Solteiro            Educ Superior Inc   300002070000000São Luis                                                    Rua          316Cristo rei                    93022690                    RS1870551-35896039         51-99741466                                       16/01/2017ATIVO - Efetivo Exercício     EFETIVO             RJU                 22/04/201405/05/201405/05/2014                    talita-flores@defensoria.rs.gov.br                                                                   410410   3518610806          21044832152               300002070000000
AJoão Luiz de Andrade Salles                                           91815908068  3922430       15062198411        RJM30/01/197704557 10Carmem Vera Ferreira de Andrade                                       João Salles Filho                                                     União Estável       Educ Superior Inc   300004006080000Marquês de Sapucaí                                          Rua           50Ideal                         93336360                    RS1340951 3210-9319        51 9737-3693                                      16/01/2017ATIVO - Efetivo Exercício     EFETIVO             RJU                 30/06/201414/07/201414/07/2014                    joao-salles@defensoria.rs.gov.br                                                                     410415   3803728304          12588342673               300004006080000
ACatiane Teixeira Reis Norbert                                           290943051  3965635       11078427323        RSF26/10/198201503 10Solange Teixeira Reis                                                 Augusto Adroaldo Rodrigues Reis                                       Casado              Pós-Graduação       300002009000000São Francisco                                               Rua          380Centro                        98740000                    RS0150355 3334-1192        55 9603-6258                                      21/11/2016ATIVO - Afastado              EFETIVO             RJU                 25/08/201408/09/201408/09/2014                    catiane-norbert@defensoria.rs.gov.br                                                                 410119   3513454400          12733618670               300002009000000
ASandra Beatriz Morais da Silveira                                     28118235068  4246764       14008151997        RSF08/12/195814902 10Iracema Marlei Morais da Silveira                                     Lauro da Silveira                                                     Solteiro            Doutorado           300004001000100Demétrio Ribeiro                                            Rua          479Centro Histórico              90010310502                 RS1490251-3126.0516        51-86175837                                       16/01/2017ATIVO - Efetivo Exercício     COMISSIONADO        RJU                 11/05/201511/05/201511/05/2015                    sandra-morais@defensoria.rs.gov.br                                                                   410040   3518653703          10682004771300004001000100300004001000100
AMichele Smolinski Peixoto                                             99735679000  4257529       18079383488        RSF15/09/198218903 10Ana Estela Iung Smolinski                                             Clair Smolinski                                                       Casado              Educação Superior   300002117000000São João                                                    Rua         1107Centro                        97800000                    RS18903                    (55) 8117-1987                                    23/08/2016ATIVO - Afastado              EFETIVO             RJU                 06/07/2015          20/07/2015                    michele-smolinski@defensoria.rs.gov.br                                                               410412   3511270809          12773277696               300002117000000
AJuarez Nardon de Oliveira                                             47900725091  4263820       13034039705        RSM11/06/196700406 10Valci Nardon de Oliveira                                              Paulo de Oliveira                                                     Solteiro            Ensino Médio        300002064000000Rua São Pedro                                               Rua           78Centro                        98920000Ap. 306             RS0960555 9712-5965        55 9661-3275                                      16/01/2017ATIVO - Efetivo Exercício     EFETIVO             RJU                 24/08/201508/09/201508/09/2015                    juarez-oliveira@defensoria.rs.gov.br                                                                 410110   3509225903          12406599746               300002064000000
ALucas Appel Mazo                                                       2224043023  4295935       14089907168        RSM09/02/198917509 10Heloísa Helena Appel Mazo                                             Jones Zarpellon Mazo                                                  Casado              Educação Superior   300002114020000Benjamin Constant                                           Rua          202Centro                        97700000ap. 701             RS0933255 3027-4130        51 9818-3146                                      12/01/2017ATIVO - Afastado              EFETIVO             DEFENSORES          28/06/201615/07/201615/07/2016                    lucas-mazo@defensoria.rs.gov.br                                                                      411069   3500041400          19056583355               300002114020000
